{
  "_format": "hh-sol-artifact-1",
  "contractName": "Exchange",
  "sourceName": "contracts/Exchange.sol",
  "abi": [
    {
      "inputs": [
        {
          "internalType": "address",
          "name": "_crytoDevTokenAddress",
          "type": "address"
        }
      ],
      "stateMutability": "nonpayable",
      "type": "constructor"
    },
    {
      "anonymous": false,
      "inputs": [
        {
          "indexed": true,
          "internalType": "address",
          "name": "owner",
          "type": "address"
        },
        {
          "indexed": true,
          "internalType": "address",
          "name": "spender",
          "type": "address"
        },
        {
          "indexed": false,
          "internalType": "uint256",
          "name": "value",
          "type": "uint256"
        }
      ],
      "name": "Approval",
      "type": "event"
    },
    {
      "anonymous": false,
      "inputs": [
        {
          "indexed": true,
          "internalType": "address",
          "name": "from",
          "type": "address"
        },
        {
          "indexed": true,
          "internalType": "address",
          "name": "to",
          "type": "address"
        },
        {
          "indexed": false,
          "internalType": "uint256",
          "name": "value",
          "type": "uint256"
        }
      ],
      "name": "Transfer",
      "type": "event"
    },
    {
      "inputs": [
        {
          "internalType": "uint256",
          "name": "amount",
          "type": "uint256"
        }
      ],
      "name": "addLiquidity",
      "outputs": [
        {
          "internalType": "uint256",
          "name": "",
          "type": "uint256"
        }
      ],
      "stateMutability": "payable",
      "type": "function"
    },
    {
      "inputs": [
        {
          "internalType": "address",
          "name": "owner",
          "type": "address"
        },
        {
          "internalType": "address",
          "name": "spender",
          "type": "address"
        }
      ],
      "name": "allowance",
      "outputs": [
        {
          "internalType": "uint256",
          "name": "",
          "type": "uint256"
        }
      ],
      "stateMutability": "view",
      "type": "function"
    },
    {
      "inputs": [
        {
          "internalType": "address",
          "name": "spender",
          "type": "address"
        },
        {
          "internalType": "uint256",
          "name": "amount",
          "type": "uint256"
        }
      ],
      "name": "approve",
      "outputs": [
        {
          "internalType": "bool",
          "name": "",
          "type": "bool"
        }
      ],
      "stateMutability": "nonpayable",
      "type": "function"
    },
    {
      "inputs": [
        {
          "internalType": "address",
          "name": "account",
          "type": "address"
        }
      ],
      "name": "balanceOf",
      "outputs": [
        {
          "internalType": "uint256",
          "name": "",
          "type": "uint256"
        }
      ],
      "stateMutability": "view",
      "type": "function"
    },
    {
      "inputs": [],
      "name": "cryptoDevTokenAddress",
      "outputs": [
        {
          "internalType": "contract ERC20",
          "name": "",
          "type": "address"
        }
      ],
      "stateMutability": "view",
      "type": "function"
    },
    {
      "inputs": [],
      "name": "decimals",
      "outputs": [
        {
          "internalType": "uint8",
          "name": "",
          "type": "uint8"
        }
      ],
      "stateMutability": "view",
      "type": "function"
    },
    {
      "inputs": [
        {
          "internalType": "address",
          "name": "spender",
          "type": "address"
        },
        {
          "internalType": "uint256",
          "name": "subtractedValue",
          "type": "uint256"
        }
      ],
      "name": "decreaseAllowance",
      "outputs": [
        {
          "internalType": "bool",
          "name": "",
          "type": "bool"
        }
      ],
      "stateMutability": "nonpayable",
      "type": "function"
    },
    {
      "inputs": [
        {
          "internalType": "uint256",
          "name": "inputAmount",
          "type": "uint256"
        },
        {
          "internalType": "uint256",
          "name": "inputReserve",
          "type": "uint256"
        },
        {
          "internalType": "uint256",
          "name": "outputReserve",
          "type": "uint256"
        }
      ],
      "name": "getAmountOut",
      "outputs": [
        {
          "internalType": "uint256",
          "name": "",
          "type": "uint256"
        }
      ],
      "stateMutability": "pure",
      "type": "function"
    },
    {
      "inputs": [],
      "name": "getReserve",
      "outputs": [
        {
          "internalType": "uint256",
          "name": "",
          "type": "uint256"
        }
      ],
      "stateMutability": "view",
      "type": "function"
    },
    {
      "inputs": [
        {
          "internalType": "address",
          "name": "spender",
          "type": "address"
        },
        {
          "internalType": "uint256",
          "name": "addedValue",
          "type": "uint256"
        }
      ],
      "name": "increaseAllowance",
      "outputs": [
        {
          "internalType": "bool",
          "name": "",
          "type": "bool"
        }
      ],
      "stateMutability": "nonpayable",
      "type": "function"
    },
    {
      "inputs": [],
      "name": "name",
      "outputs": [
        {
          "internalType": "string",
          "name": "",
          "type": "string"
        }
      ],
      "stateMutability": "view",
      "type": "function"
    },
    {
      "inputs": [
        {
          "internalType": "uint256",
          "name": "_amount",
          "type": "uint256"
        }
      ],
      "name": "removeLiquidity",
      "outputs": [
        {
          "internalType": "uint256",
          "name": "",
          "type": "uint256"
        },
        {
          "internalType": "uint256",
          "name": "",
          "type": "uint256"
        }
      ],
      "stateMutability": "nonpayable",
      "type": "function"
    },
    {
      "inputs": [
        {
          "internalType": "uint256",
          "name": "_amountIn",
          "type": "uint256"
        },
        {
          "internalType": "uint256",
          "name": "_minAmountOut",
          "type": "uint256"
        }
      ],
      "name": "swap",
      "outputs": [],
      "stateMutability": "payable",
      "type": "function"
    },
    {
      "inputs": [],
      "name": "symbol",
      "outputs": [
        {
          "internalType": "string",
          "name": "",
          "type": "string"
        }
      ],
      "stateMutability": "view",
      "type": "function"
    },
    {
      "inputs": [],
      "name": "totalSupply",
      "outputs": [
        {
          "internalType": "uint256",
          "name": "",
          "type": "uint256"
        }
      ],
      "stateMutability": "view",
      "type": "function"
    },
    {
      "inputs": [
        {
          "internalType": "address",
          "name": "to",
          "type": "address"
        },
        {
          "internalType": "uint256",
          "name": "amount",
          "type": "uint256"
        }
      ],
      "name": "transfer",
      "outputs": [
        {
          "internalType": "bool",
          "name": "",
          "type": "bool"
        }
      ],
      "stateMutability": "nonpayable",
      "type": "function"
    },
    {
      "inputs": [
        {
          "internalType": "address",
          "name": "from",
          "type": "address"
        },
        {
          "internalType": "address",
          "name": "to",
          "type": "address"
        },
        {
          "internalType": "uint256",
          "name": "amount",
          "type": "uint256"
        }
      ],
      "name": "transferFrom",
      "outputs": [
        {
          "internalType": "bool",
          "name": "",
          "type": "bool"
        }
      ],
      "stateMutability": "nonpayable",
      "type": "function"
    }
  ],
  "bytecode": "0x60806040523480156200001157600080fd5b5060405162002a8a38038062002a8a8339818101604052810190620000379190620002ac565b6040518060400160405280600881526020017f45786368616e67650000000000000000000000000000000000000000000000008152506040518060400160405280600981526020017f43727970746f44657800000000000000000000000000000000000000000000008152508160039080519060200190620000bb92919062000192565b508060049080519060200190620000d492919062000192565b505050600073ffffffffffffffffffffffffffffffffffffffff168173ffffffffffffffffffffffffffffffffffffffff1614156200014a576040517f08c379a000000000000000000000000000000000000000000000000000000000815260040162000141906200033f565b60405180910390fd5b80600560006101000a81548173ffffffffffffffffffffffffffffffffffffffff021916908373ffffffffffffffffffffffffffffffffffffffff16021790555050620003c6565b828054620001a09062000390565b90600052602060002090601f016020900481019282620001c4576000855562000210565b82601f10620001df57805160ff191683800117855562000210565b8280016001018555821562000210579182015b828111156200020f578251825591602001919060010190620001f2565b5b5090506200021f919062000223565b5090565b5b808211156200023e57600081600090555060010162000224565b5090565b600080fd5b600073ffffffffffffffffffffffffffffffffffffffff82169050919050565b6000620002748262000247565b9050919050565b620002868162000267565b81146200029257600080fd5b50565b600081519050620002a6816200027b565b92915050565b600060208284031215620002c557620002c462000242565b5b6000620002d58482850162000295565b91505092915050565b600082825260208201905092915050565b7f4e756c6c20616464726573730000000000000000000000000000000000000000600082015250565b600062000327600c83620002de565b91506200033482620002ef565b602082019050919050565b600060208201905081810360008301526200035a8162000318565b9050919050565b7f4e487b7100000000000000000000000000000000000000000000000000000000600052602260045260246000fd5b60006002820490506001821680620003a957607f821691505b60208210811415620003c057620003bf62000361565b5b50919050565b6126b480620003d66000396000f3fe6080604052600436106100fe5760003560e01c806359bf5d39116100955780639e7a2922116100645780639e7a292214610379578063a457c2d7146103a4578063a9059cbb146103e1578063d96073cf1461041e578063dd62ed3e1461043a576100fe565b806359bf5d39146102a857806370a08231146102d357806395d89b41146103105780639c8f9f231461033b576100fe565b806323b872dd116100d157806323b872dd146101d3578063313ce56714610210578063395093511461023b57806351c6590a14610278576100fe565b8063054d50d41461010357806306fdde0314610140578063095ea7b31461016b57806318160ddd146101a8575b600080fd5b34801561010f57600080fd5b5061012a600480360381019061012591906117c8565b610477565b604051610137919061182a565b60405180910390f35b34801561014c57600080fd5b506101556104cd565b60405161016291906118de565b60405180910390f35b34801561017757600080fd5b50610192600480360381019061018d919061195e565b61055f565b60405161019f91906119b9565b60405180910390f35b3480156101b457600080fd5b506101bd610582565b6040516101ca919061182a565b60405180910390f35b3480156101df57600080fd5b506101fa60048036038101906101f591906119d4565b61058c565b60405161020791906119b9565b60405180910390f35b34801561021c57600080fd5b506102256105bb565b6040516102329190611a43565b60405180910390f35b34801561024757600080fd5b50610262600480360381019061025d919061195e565b6105c4565b60405161026f91906119b9565b60405180910390f35b610292600480360381019061028d9190611a5e565b6105fb565b60405161029f919061182a565b60405180910390f35b3480156102b457600080fd5b506102bd610870565b6040516102ca919061182a565b60405180910390f35b3480156102df57600080fd5b506102fa60048036038101906102f59190611a8b565b610922565b604051610307919061182a565b60405180910390f35b34801561031c57600080fd5b5061032561096a565b60405161033291906118de565b60405180910390f35b34801561034757600080fd5b50610362600480360381019061035d9190611a5e565b6109fc565b604051610370929190611ab8565b60405180910390f35b34801561038557600080fd5b5061038e610ba0565b60405161039b9190611b40565b60405180910390f35b3480156103b057600080fd5b506103cb60048036038101906103c6919061195e565b610bc6565b6040516103d891906119b9565b60405180910390f35b3480156103ed57600080fd5b506104086004803603810190610403919061195e565b610c3d565b60405161041591906119b9565b60405180910390f35b61043860048036038101906104339190611b5b565b610c60565b005b34801561044657600080fd5b50610461600480360381019061045c9190611b9b565b610ee5565b60405161046e919061182a565b60405180910390f35b60008060646063866104899190611c0a565b6104939190611c93565b9050600081846104a39190611c0a565b9050600082866104b39190611cc4565b905080826104c19190611c93565b93505050509392505050565b6060600380546104dc90611d49565b80601f016020809104026020016040519081016040528092919081815260200182805461050890611d49565b80156105555780601f1061052a57610100808354040283529160200191610555565b820191906000526020600020905b81548152906001019060200180831161053857829003601f168201915b5050505050905090565b60008061056a610f6c565b9050610577818585610f74565b600191505092915050565b6000600254905090565b600080610597610f6c565b90506105a485828561113f565b6105af8585856111cb565b60019150509392505050565b60006012905090565b6000806105cf610f6c565b90506105f08185856105e18589610ee5565b6105eb9190611cc4565b610f74565b600191505092915050565b600080341161063f576040517f08c379a000000000000000000000000000000000000000000000000000000000815260040161063690611dc7565b60405180910390fd5b6000610649610870565b905060008082141561071957600560009054906101000a900473ffffffffffffffffffffffffffffffffffffffff1673ffffffffffffffffffffffffffffffffffffffff166323b872dd3330876040518463ffffffff1660e01b81526004016106b493929190611df6565b602060405180830381600087803b1580156106ce57600080fd5b505af11580156106e2573d6000803e3d6000fd5b505050506040513d601f19601f820116820180604052508101906107069190611e59565b50479050610714338261144c565b610866565b600034476107279190611e86565b905060008184346107389190611c0a565b6107429190611c93565b905080861015610787576040517f08c379a000000000000000000000000000000000000000000000000000000000815260040161077e90611f2c565b60405180910390fd5b81346107939190611c93565b61079b610582565b6107a59190611c0a565b9250600560009054906101000a900473ffffffffffffffffffffffffffffffffffffffff1673ffffffffffffffffffffffffffffffffffffffff166323b872dd3330896040518463ffffffff1660e01b815260040161080693929190611df6565b602060405180830381600087803b15801561082057600080fd5b505af1158015610834573d6000803e3d6000fd5b505050506040513d601f19601f820116820180604052508101906108589190611e59565b50610863338461144c565b50505b8092505050919050565b6000600560009054906101000a900473ffffffffffffffffffffffffffffffffffffffff1673ffffffffffffffffffffffffffffffffffffffff166370a08231306040518263ffffffff1660e01b81526004016108cd9190611f4c565b60206040518083038186803b1580156108e557600080fd5b505afa1580156108f9573d6000803e3d6000fd5b505050506040513d601f19601f8201168201806040525081019061091d9190611f7c565b905090565b60008060008373ffffffffffffffffffffffffffffffffffffffff1673ffffffffffffffffffffffffffffffffffffffff168152602001908152602001600020549050919050565b60606004805461097990611d49565b80601f01602080910402602001604051908101604052809291908181526020018280546109a590611d49565b80156109f25780601f106109c7576101008083540402835291602001916109f2565b820191906000526020600020905b8154815290600101906020018083116109d557829003601f168201915b5050505050905090565b60008060008311610a42576040517f08c379a0000000000000000000000000000000000000000000000000000000008152600401610a3990611ff5565b60405180910390fd5b60004790506000610a51610582565b90506000818684610a629190611c0a565b610a6c9190611c93565b905060008287610a7a610870565b610a849190611c0a565b610a8e9190611c93565b9050610a9a33886115ac565b3373ffffffffffffffffffffffffffffffffffffffff166108fc839081150290604051600060405180830381858888f19350505050158015610ae0573d6000803e3d6000fd5b50600560009054906101000a900473ffffffffffffffffffffffffffffffffffffffff1673ffffffffffffffffffffffffffffffffffffffff1663a9059cbb33896040518363ffffffff1660e01b8152600401610b3e929190612015565b602060405180830381600087803b158015610b5857600080fd5b505af1158015610b6c573d6000803e3d6000fd5b505050506040513d601f19601f82011682018060405250810190610b909190611e59565b5081819550955050505050915091565b600560009054906101000a900473ffffffffffffffffffffffffffffffffffffffff1681565b600080610bd1610f6c565b90506000610bdf8286610ee5565b905083811015610c24576040517f08c379a0000000000000000000000000000000000000000000000000000000008152600401610c1b906120b0565b60405180910390fd5b610c318286868403610f74565b60019250505092915050565b600080610c48610f6c565b9050610c558185856111cb565b600191505092915050565b600080341490506000610c71610870565b905060003447610c819190611e86565b90508215610dda576000610c96868484610477565b905084811015610cdb576040517f08c379a0000000000000000000000000000000000000000000000000000000008152600401610cd29061211c565b60405180910390fd5b600560009054906101000a900473ffffffffffffffffffffffffffffffffffffffff1673ffffffffffffffffffffffffffffffffffffffff166323b872dd3330896040518463ffffffff1660e01b8152600401610d3a93929190611df6565b602060405180830381600087803b158015610d5457600080fd5b505af1158015610d68573d6000803e3d6000fd5b505050506040513d601f19601f82011682018060405250810190610d8c9190611e59565b503373ffffffffffffffffffffffffffffffffffffffff166108fc829081150290604051600060405180830381858888f19350505050158015610dd3573d6000803e3d6000fd5b5050610ede565b6000610de7348385610477565b905085811015610e2c576040517f08c379a0000000000000000000000000000000000000000000000000000000008152600401610e2390612188565b60405180910390fd5b600560009054906101000a900473ffffffffffffffffffffffffffffffffffffffff1673ffffffffffffffffffffffffffffffffffffffff1663a9059cbb33836040518363ffffffff1660e01b8152600401610e89929190612015565b602060405180830381600087803b158015610ea357600080fd5b505af1158015610eb7573d6000803e3d6000fd5b505050506040513d601f19601f82011682018060405250810190610edb9190611e59565b50505b5050505050565b6000600160008473ffffffffffffffffffffffffffffffffffffffff1673ffffffffffffffffffffffffffffffffffffffff16815260200190815260200160002060008373ffffffffffffffffffffffffffffffffffffffff1673ffffffffffffffffffffffffffffffffffffffff16815260200190815260200160002054905092915050565b600033905090565b600073ffffffffffffffffffffffffffffffffffffffff168373ffffffffffffffffffffffffffffffffffffffff161415610fe4576040517f08c379a0000000000000000000000000000000000000000000000000000000008152600401610fdb9061221a565b60405180910390fd5b600073ffffffffffffffffffffffffffffffffffffffff168273ffffffffffffffffffffffffffffffffffffffff161415611054576040517f08c379a000000000000000000000000000000000000000000000000000000000815260040161104b906122ac565b60405180910390fd5b80600160008573ffffffffffffffffffffffffffffffffffffffff1673ffffffffffffffffffffffffffffffffffffffff16815260200190815260200160002060008473ffffffffffffffffffffffffffffffffffffffff1673ffffffffffffffffffffffffffffffffffffffff168152602001908152602001600020819055508173ffffffffffffffffffffffffffffffffffffffff168373ffffffffffffffffffffffffffffffffffffffff167f8c5be1e5ebec7d5bd14f71427d1e84f3dd0314c0f7b2291e5b200ac8c7c3b92583604051611132919061182a565b60405180910390a3505050565b600061114b8484610ee5565b90507fffffffffffffffffffffffffffffffffffffffffffffffffffffffffffffffff81146111c557818110156111b7576040517f08c379a00000000000000000000000000000000000000000000000000000000081526004016111ae90612318565b60405180910390fd5b6111c48484848403610f74565b5b50505050565b600073ffffffffffffffffffffffffffffffffffffffff168373ffffffffffffffffffffffffffffffffffffffff16141561123b576040517f08c379a0000000000000000000000000000000000000000000000000000000008152600401611232906123aa565b60405180910390fd5b600073ffffffffffffffffffffffffffffffffffffffff168273ffffffffffffffffffffffffffffffffffffffff1614156112ab576040517f08c379a00000000000000000000000000000000000000000000000000000000081526004016112a29061243c565b60405180910390fd5b6112b6838383611783565b60008060008573ffffffffffffffffffffffffffffffffffffffff1673ffffffffffffffffffffffffffffffffffffffff1681526020019081526020016000205490508181101561133c576040517f08c379a0000000000000000000000000000000000000000000000000000000008152600401611333906124ce565b60405180910390fd5b8181036000808673ffffffffffffffffffffffffffffffffffffffff1673ffffffffffffffffffffffffffffffffffffffff16815260200190815260200160002081905550816000808573ffffffffffffffffffffffffffffffffffffffff1673ffffffffffffffffffffffffffffffffffffffff16815260200190815260200160002060008282546113cf9190611cc4565b925050819055508273ffffffffffffffffffffffffffffffffffffffff168473ffffffffffffffffffffffffffffffffffffffff167fddf252ad1be2c89b69c2b068fc378daa952ba7f163c4a11628f55a4df523b3ef84604051611433919061182a565b60405180910390a3611446848484611788565b50505050565b600073ffffffffffffffffffffffffffffffffffffffff168273ffffffffffffffffffffffffffffffffffffffff1614156114bc576040517f08c379a00000000000000000000000000000000000000000000000000000000081526004016114b39061253a565b60405180910390fd5b6114c860008383611783565b80600260008282546114da9190611cc4565b92505081905550806000808473ffffffffffffffffffffffffffffffffffffffff1673ffffffffffffffffffffffffffffffffffffffff168152602001908152602001600020600082825461152f9190611cc4565b925050819055508173ffffffffffffffffffffffffffffffffffffffff16600073ffffffffffffffffffffffffffffffffffffffff167fddf252ad1be2c89b69c2b068fc378daa952ba7f163c4a11628f55a4df523b3ef83604051611594919061182a565b60405180910390a36115a860008383611788565b5050565b600073ffffffffffffffffffffffffffffffffffffffff168273ffffffffffffffffffffffffffffffffffffffff16141561161c576040517f08c379a0000000000000000000000000000000000000000000000000000000008152600401611613906125cc565b60405180910390fd5b61162882600083611783565b60008060008473ffffffffffffffffffffffffffffffffffffffff1673ffffffffffffffffffffffffffffffffffffffff168152602001908152602001600020549050818110156116ae576040517f08c379a00000000000000000000000000000000000000000000000000000000081526004016116a59061265e565b60405180910390fd5b8181036000808573ffffffffffffffffffffffffffffffffffffffff1673ffffffffffffffffffffffffffffffffffffffff1681526020019081526020016000208190555081600260008282546117059190611e86565b92505081905550600073ffffffffffffffffffffffffffffffffffffffff168373ffffffffffffffffffffffffffffffffffffffff167fddf252ad1be2c89b69c2b068fc378daa952ba7f163c4a11628f55a4df523b3ef8460405161176a919061182a565b60405180910390a361177e83600084611788565b505050565b505050565b505050565b600080fd5b6000819050919050565b6117a581611792565b81146117b057600080fd5b50565b6000813590506117c28161179c565b92915050565b6000806000606084860312156117e1576117e061178d565b5b60006117ef868287016117b3565b9350506020611800868287016117b3565b9250506040611811868287016117b3565b9150509250925092565b61182481611792565b82525050565b600060208201905061183f600083018461181b565b92915050565b600081519050919050565b600082825260208201905092915050565b60005b8381101561187f578082015181840152602081019050611864565b8381111561188e576000848401525b50505050565b6000601f19601f8301169050919050565b60006118b082611845565b6118ba8185611850565b93506118ca818560208601611861565b6118d381611894565b840191505092915050565b600060208201905081810360008301526118f881846118a5565b905092915050565b600073ffffffffffffffffffffffffffffffffffffffff82169050919050565b600061192b82611900565b9050919050565b61193b81611920565b811461194657600080fd5b50565b60008135905061195881611932565b92915050565b600080604083850312156119755761197461178d565b5b600061198385828601611949565b9250506020611994858286016117b3565b9150509250929050565b60008115159050919050565b6119b38161199e565b82525050565b60006020820190506119ce60008301846119aa565b92915050565b6000806000606084860312156119ed576119ec61178d565b5b60006119fb86828701611949565b9350506020611a0c86828701611949565b9250506040611a1d868287016117b3565b9150509250925092565b600060ff82169050919050565b611a3d81611a27565b82525050565b6000602082019050611a586000830184611a34565b92915050565b600060208284031215611a7457611a7361178d565b5b6000611a82848285016117b3565b91505092915050565b600060208284031215611aa157611aa061178d565b5b6000611aaf84828501611949565b91505092915050565b6000604082019050611acd600083018561181b565b611ada602083018461181b565b9392505050565b6000819050919050565b6000611b06611b01611afc84611900565b611ae1565b611900565b9050919050565b6000611b1882611aeb565b9050919050565b6000611b2a82611b0d565b9050919050565b611b3a81611b1f565b82525050565b6000602082019050611b556000830184611b31565b92915050565b60008060408385031215611b7257611b7161178d565b5b6000611b80858286016117b3565b9250506020611b91858286016117b3565b9150509250929050565b60008060408385031215611bb257611bb161178d565b5b6000611bc085828601611949565b9250506020611bd185828601611949565b9150509250929050565b7f4e487b7100000000000000000000000000000000000000000000000000000000600052601160045260246000fd5b6000611c1582611792565b9150611c2083611792565b9250817fffffffffffffffffffffffffffffffffffffffffffffffffffffffffffffffff0483118215151615611c5957611c58611bdb565b5b828202905092915050565b7f4e487b7100000000000000000000000000000000000000000000000000000000600052601260045260246000fd5b6000611c9e82611792565b9150611ca983611792565b925082611cb957611cb8611c64565b5b828204905092915050565b6000611ccf82611792565b9150611cda83611792565b9250827fffffffffffffffffffffffffffffffffffffffffffffffffffffffffffffffff03821115611d0f57611d0e611bdb565b5b828201905092915050565b7f4e487b7100000000000000000000000000000000000000000000000000000000600052602260045260246000fd5b60006002820490506001821680611d6157607f821691505b60208210811415611d7557611d74611d1a565b5b50919050565b7f496e73756666696369656e7420616d6f756e7400000000000000000000000000600082015250565b6000611db1601383611850565b9150611dbc82611d7b565b602082019050919050565b60006020820190508181036000830152611de081611da4565b9050919050565b611df081611920565b82525050565b6000606082019050611e0b6000830186611de7565b611e186020830185611de7565b611e25604083018461181b565b949350505050565b611e368161199e565b8114611e4157600080fd5b50565b600081519050611e5381611e2d565b92915050565b600060208284031215611e6f57611e6e61178d565b5b6000611e7d84828501611e44565b91505092915050565b6000611e9182611792565b9150611e9c83611792565b925082821015611eaf57611eae611bdb565b5b828203905092915050565b7f546f6b656e20616d6f756e74206973206c657373207468616e206d696e416d6f60008201527f756e74496e000000000000000000000000000000000000000000000000000000602082015250565b6000611f16602583611850565b9150611f2182611eba565b604082019050919050565b60006020820190508181036000830152611f4581611f09565b9050919050565b6000602082019050611f616000830184611de7565b92915050565b600081519050611f768161179c565b92915050565b600060208284031215611f9257611f9161178d565b5b6000611fa084828501611f67565b91505092915050565b7f5a65726f20616d6f756e74206572726f72000000000000000000000000000000600082015250565b6000611fdf601183611850565b9150611fea82611fa9565b602082019050919050565b6000602082019050818103600083015261200e81611fd2565b9050919050565b600060408201905061202a6000830185611de7565b612037602083018461181b565b9392505050565b7f45524332303a2064656372656173656420616c6c6f77616e63652062656c6f7760008201527f207a65726f000000000000000000000000000000000000000000000000000000602082015250565b600061209a602583611850565b91506120a58261203e565b604082019050919050565b600060208201905081810360008301526120c98161208d565b9050919050565b7f4e6f7420656e6f75676820746f6b656e7320746f206275792065746800000000600082015250565b6000612106601c83611850565b9150612111826120d0565b602082019050919050565b60006020820190508181036000830152612135816120f9565b9050919050565b7f4e6f7420656e6f7567682065746820746f2062757920746f6b656e7300000000600082015250565b6000612172601c83611850565b915061217d8261213c565b602082019050919050565b600060208201905081810360008301526121a181612165565b9050919050565b7f45524332303a20617070726f76652066726f6d20746865207a65726f2061646460008201527f7265737300000000000000000000000000000000000000000000000000000000602082015250565b6000612204602483611850565b915061220f826121a8565b604082019050919050565b60006020820190508181036000830152612233816121f7565b9050919050565b7f45524332303a20617070726f766520746f20746865207a65726f20616464726560008201527f7373000000000000000000000000000000000000000000000000000000000000602082015250565b6000612296602283611850565b91506122a18261223a565b604082019050919050565b600060208201905081810360008301526122c581612289565b9050919050565b7f45524332303a20696e73756666696369656e7420616c6c6f77616e6365000000600082015250565b6000612302601d83611850565b915061230d826122cc565b602082019050919050565b60006020820190508181036000830152612331816122f5565b9050919050565b7f45524332303a207472616e736665722066726f6d20746865207a65726f20616460008201527f6472657373000000000000000000000000000000000000000000000000000000602082015250565b6000612394602583611850565b915061239f82612338565b604082019050919050565b600060208201905081810360008301526123c381612387565b9050919050565b7f45524332303a207472616e7366657220746f20746865207a65726f206164647260008201527f6573730000000000000000000000000000000000000000000000000000000000602082015250565b6000612426602383611850565b9150612431826123ca565b604082019050919050565b6000602082019050818103600083015261245581612419565b9050919050565b7f45524332303a207472616e7366657220616d6f756e742065786365656473206260008201527f616c616e63650000000000000000000000000000000000000000000000000000602082015250565b60006124b8602683611850565b91506124c38261245c565b604082019050919050565b600060208201905081810360008301526124e7816124ab565b9050919050565b7f45524332303a206d696e7420746f20746865207a65726f206164647265737300600082015250565b6000612524601f83611850565b915061252f826124ee565b602082019050919050565b6000602082019050818103600083015261255381612517565b9050919050565b7f45524332303a206275726e2066726f6d20746865207a65726f2061646472657360008201527f7300000000000000000000000000000000000000000000000000000000000000602082015250565b60006125b6602183611850565b91506125c18261255a565b604082019050919050565b600060208201905081810360008301526125e5816125a9565b9050919050565b7f45524332303a206275726e20616d6f756e7420657863656564732062616c616e60008201527f6365000000000000000000000000000000000000000000000000000000000000602082015250565b6000612648602283611850565b9150612653826125ec565b604082019050919050565b600060208201905081810360008301526126778161263b565b905091905056fea26469706673582212206c4a14dad0f933a237f20efee639908e69eae0ca298bbe9fe22c5dcf690e793f64736f6c63430008090033",
  "linkReferences": {},
  "deployedLinkReferences": {}
}